:020000040800F2
:1000000000000220E9090008390A0008390A00083E
:10001000390A0008390A0008390A000800000000FF
:10002000000000000000000000000000390A000885
:10003000390A000800000000390A00081108000809
:10004000390A0008390A0008390A0008390A000884
:10005000390A0008390A0008390A0008390A000874
:10006000390A0008390A0008390A0008390A000864
:10007000390A0008390A0008390A0008390A000854
:10008000390A0008390A0008350800080000000095
:10009000000000000000000000000000390A000815
:1000A000390A0008390A0008390A0008390A000824
:1000B000390A000895080008390A0008390A0008BA
:1000C000390A0008390A0008390A0008390A000804
:1000D000390A0008390A0008390A0008000000003F
:1000E000390A0008390A0008390A0008000000002F
:1000F000000000000000000000000000390A0008B5
:1001000000000000390A0008390A0008390A00080E
:1001100000000000000000000000000000000000DF
:1001200049080008390A0008390A0008390A000895
:10013000390A000800000000000000000000000074
:10014000000000000000000000000000390A000864
:10015000390A0008390A0008390A0008390A000873
:10016000390A0008390A00080000000000000000F9
:10017000000000000000000000000000000000007F
:1001800000000000390A0008000000000000000024
:08019000390A0008390A0008D1
:1001980010B5054C237833B9044B13B10448AFF3B9
:1001A80000800123237010BD000000200000000023
:1001B800840A000808B5034B1BB103490348AFF391
:1001C800008008BD0000000004000020840A000828
:1001D800034AD2F8883043F47003C2F88830704775
:1001E80000ED00E008B500F01BF900F0B7F900F0E9
:1001F80091F900F027FA00F09DFA00F0F1F900F00B
:10020800CBFA57222021192000F060FB0822232175
:10021800192000F05BFB1C2200211E2000F056FB79
:10022800202201211E2000F051FB002202211E2065
:1002380000F04CFB644A2021192000F07DFB634C40
:1002480022462821192000F077FB621C2921192059
:1002580000F072FBA21C2A21192000F06DFBE21CA1
:100268002B21192000F068FB221D2C21192000F0F9
:1002780063FB621D2D21192000F05EFB6378217855
:1002880041EA032109B252480180E378A27842EAA0
:10029800032212B2428094F805C0237943EA0C2362
:1002A8001BB2838009114B48018012114A48028011
:1002B8001B114A48038007EE901AF8EEE77ADFED43
:1002C800486A67EEA67A9FED477A67EE877A4649CD
:1002D800C1ED007A07EE902AF8EEE77A67EEA67A83
:1002E80067EE877A414AC2ED007A07EE903AF8EE57
:1002F800E77A67EEA67A67EE877A3D4BC3ED007A18
:100308003C4C224603211E2000F016FB621C0421EF
:100318001E2000F011FBA21C07211E2000F00CFB80
:10032800E21C08211E2000F007FB221D05211E20CB
:1003380000F002FB621D06211E2000F0FDFA237862
:10034800617841EA032109B22B480180A378E27859
:1003580042EA032212B2428094F804C0637943EA65
:100368000C231BB2838007EE901AF8EEE77A9FED14
:10037800237A87EE876A224981ED006A07EE902A80
:10038800F8EEE77AC7EE876A1E4AC2ED006A07EE02
:10039800903AF8EEE77ADFED1C5A87EEA57A1B4B08
:1003A80083ED007ADFED1A7A26EE276A194B83ED82
:1003B800006A66EEA76A184BC3ED006A27EE277A33
:1003C800164B83ED007A35E75600002060000020C8
:1003D800500000204400002042000020400000207F
:1003E8006F12833AC3F51C413C00002038000020FE
:1003F8003400002058000020480000200080894474
:100408002400002020000020000075441C0000206B
:1004180000007A44300000202C0000202800002032
:100428003A4A136823F0F80343F08003136000236B
:100438009360364B9B6813F00C0FFAD1334A13685C
:1004480023F080731360314B1B6813F0007FFAD1DF
:100458002E4A136823F4102313602C4B1B6813F4E3
:10046800003FFAD1294B1A6822F480221A601A68D0
:1004780042F480321A60254B1B6813F4003FFAD00F
:10048800224B1A6842F400221A6000225A605A6805
:1004980042F480025A605A6842F008025A605A6868
:1004A80042F440525A605A6822F440325A605A68FC
:1004B80042F080625A609A6842F002029A609A6832
:1004C8009A609A6842F480529A609A689A609A6828
:1004D80042F4C0029A609A6842F0C0629A609A68D0
:1004E80022F040429A609A6842F040529A60084965
:1004F8000A6842F005020A601A6842F080721A60BF
:10050800024B1B6813F0007FFAD070470038024096
:10051800003C02404FF0E0231A6922F001021A6100
:100528001A6942F002021A611A6942F004021A6159
:100538005A6902F07F4242F4243242F03F025A6183
:100548009A6902F07F4242F4243242F03F029A61F3
:100558001A6942F001021A61704700001E4A136BC3
:1005680043F005031363A2F54052136843F00103F7
:1005780013601A4B196841F480711960996841F445
:1005880000719960196841F400411960196A41F0D5
:1005980000511962196841F480511960996941F054
:1005A80040019961116841F400211160916841F49A
:1005B80040219160516A21F0F00151621A6842F4B9
:1005C80000321A609A6842F440329A605A6A22F0FD
:1005D8000F025A62704700BF003802400000024014
:1005E800154A136C43F002031364144B04229A62F5
:1005F80041F2BF22DA621A6842F020021A609A6950
:1006080022F440729A619A6942F4D0429A611A6A55
:1006180042F010021A625A6842F020025A601A68C0
:1006280042F001021A60DA6842F00102DA60044B13
:100638004FF000521A607047003802400004004032
:1006480000E100E082B0374A536C43F4807353648E
:10065800354B1A6842F003021A60DA6822F0030286
:10066800DA601A6842F00C021A60DA6822F00C02AA
:10067800DA601A6842F030021A60DA6822F0300252
:10068800DA60A3F55D435A6842F480325A605A68CA
:1006980042F400025A60A3F540735A6822F040728F
:1006A8005A605A6842F480725A609A6822F400626A
:1006B8009A609A6842F080529A609A6842F00062A2
:1006C8009A609A6842F480729A609A6842F400725A
:1006D8009A601A6942F006021A611A6942F03002F9
:1006E8001A611A6942F040021A611A6942F40072EA
:1006F8001A614FF44012DA620C4A5A639A6842F05F
:1007080001029A600A4B4FF480221A600023019379
:1007180002E0019B01330193019BB3F57A7FF8DB7B
:1007280002B07047003802400000024020880100F3
:1007380000E100E0124A136B43F48003136302F5EF
:100748003052136923F0010313610E4B1B6913F038
:10075800010FFAD10B4B04225A610B4A9A610B4ADA
:10076800DA610B4A1A611A6942F001021A61094BEF
:100778004FF080725A60102283F83823704700BF08
:1007880000380240006402404C2001406C00002008
:10079800102D010000E100E01A4B1A6C42F400121F
:1007A8001A641A6B42F002021A63A3F550531A68CE
:1007B80042F402221A605A6842F410725A609A6827
:1007C80042F443229A60DA6842F48222DA601A6AB2
:1007D80042F080621A625A6A42F040025A62A3F5F5
:1007E800D8335A6842F030025A60DA6942F0F002AF
:1007F800DA611A6A42F031021A621A6842F001029A
:100808001A60704700380240054A13880133138084
:10081800044B1B781BB1044A1388013313807047BB
:10082800660000207200002078000020024BDB6C7C
:100838009BB2024A13807047002001406A000020E2
:100848000E4B1B6813F0200F07D00C4A936843F037
:10085800200393600A4B01221A700A4B1B6813F09D
:10086800200F09D0084A13780133DBB21370054A08
:10087800136823F020031360704700BF0064024030
:100888006900002000200140680000200C4B1B6913
:1008980013F0010F13D00A4A136923F001031361FF
:1008A800084A138801339BB21380B3F57A7F06D3C5
:1008B800134600221A80044A1388013313807047B4
:1008C80000040040740000207600002010B4194B8A
:1008D8009B6913F0020FFAD1164C236843F4807316
:1008E8002360144B5B6913F0010FFAD04000114BE1
:1008F8001861104B5B6913F0020FFAD00D4B986921
:1009080019610C4B5B6913F0800FFAD0094B1A611F
:10091800084B5B6913F0800FFAD0064B5B6913F044
:10092800040FFAD0034A136843F4007313605DF8A8
:10093800044B70470054004010B4284B9B6913F0D7
:10094800020FFAD1254C236843F480732360234BAC
:100958005B6913F0010FFAD04300204C23611F4B51
:100968005B6913F0020FFAD01C4B9C6919611B4B91
:100978005B6913F0800FFAD0184B5B6913F0040F12
:10098800FAD016490B6843F480730B60134B5B690C
:1009980013F0010FFAD0400040F001000F4B18612E
:1009A8000E4B5B6913F0020FFAD00C4B996919686A
:1009B80021F480611960094B5B6913F0400FFAD08C
:1009C800064B196911701A6842F400721A601A68A5
:1009D80042F480621A605DF8044B7047005400408E
:1009E800DFF834D00D480E490E4A002302E0D458EF
:1009F800C4500433C4188C42F9D30B4A0B4C00235F
:100A080001E013600432A242FBD3FFF7E1FB00F0E0
:100A180011F8FFF7E7FB70470000022000000020F4
:100A280000000020A40A0008000000207C0000202C
:100A3800FEE7000070B50D4B0D4D5B1B9C100026AA
:100A4800A64209D100F01AF80A4D0B4B5B1B9C100B
:100A58000026A64205D170BD55F8043B98470136DB
:100A6800EEE755F8043B98470136F2E79C0A000880
:100A78009C0A00089C0A0008A00A0008F8B500BFF4
:100A8800F8BC08BC9E467047F8B500BFF8BC08BC67
:040A98009E467047BF
:040A9C00BD01000890
:040AA00099010008B0
:04000005080009E9FD
:00000001FF
